{
  "_format": "hh-sol-artifact-1",
  "contractName": "Cryptonite",
  "sourceName": "contracts/Cryptonite.sol",
  "abi": [
    {
      "inputs": [
        {
          "internalType": "uint256",
          "name": "",
          "type": "uint256"
        }
      ],
      "name": "allEvents",
      "outputs": [
        {
          "internalType": "uint256",
          "name": "id",
          "type": "uint256"
        },
        {
          "internalType": "address",
          "name": "owner",
          "type": "address"
        },
        {
          "internalType": "string",
          "name": "name",
          "type": "string"
        },
        {
          "internalType": "string",
          "name": "description",
          "type": "string"
        },
        {
          "internalType": "string",
          "name": "image",
          "type": "string"
        },
        {
          "internalType": "string",
          "name": "location",
          "type": "string"
        },
        {
          "internalType": "uint256",
          "name": "amount",
          "type": "uint256"
        },
        {
          "internalType": "uint256",
          "name": "donations",
          "type": "uint256"
        },
        {
          "internalType": "uint256",
          "name": "raised",
          "type": "uint256"
        },
        {
          "internalType": "uint256",
          "name": "timestamp",
          "type": "uint256"
        },
        {
          "internalType": "bool",
          "name": "deleted",
          "type": "bool"
        },
        {
          "internalType": "bool",
          "name": "isLive",
          "type": "bool"
        }
      ],
      "stateMutability": "view",
      "type": "function"
    },
    {
      "inputs": [
        {
          "internalType": "uint256",
          "name": "",
          "type": "uint256"
        }
      ],
      "name": "allUsers",
      "outputs": [
        {
          "internalType": "uint256",
          "name": "id",
          "type": "uint256"
        },
        {
          "internalType": "address",
          "name": "owner",
          "type": "address"
        },
        {
          "internalType": "string",
          "name": "userName",
          "type": "string"
        },
        {
          "internalType": "string",
          "name": "email",
          "type": "string"
        },
        {
          "internalType": "string",
          "name": "phone",
          "type": "string"
        }
      ],
      "stateMutability": "view",
      "type": "function"
    },
    {
      "inputs": [
        {
          "internalType": "string",
          "name": "name",
          "type": "string"
        },
        {
          "internalType": "string",
          "name": "description",
          "type": "string"
        },
        {
          "internalType": "string",
          "name": "image",
          "type": "string"
        },
        {
          "internalType": "string",
          "name": "location",
          "type": "string"
        },
        {
          "internalType": "uint256",
          "name": "amount",
          "type": "uint256"
        }
      ],
      "name": "createEvent",
      "outputs": [],
      "stateMutability": "nonpayable",
      "type": "function"
    },
    {
      "inputs": [
        {
          "internalType": "string",
          "name": "userName",
          "type": "string"
        },
        {
          "internalType": "string",
          "name": "email",
          "type": "string"
        },
        {
          "internalType": "string",
          "name": "phone",
          "type": "string"
        }
      ],
      "name": "createUser",
      "outputs": [
        {
          "internalType": "bool",
          "name": "",
          "type": "bool"
        },
        {
          "internalType": "string",
          "name": "",
          "type": "string"
        },
        {
          "internalType": "uint256",
          "name": "id",
          "type": "uint256"
        }
      ],
      "stateMutability": "nonpayable",
      "type": "function"
    },
    {
      "inputs": [],
      "name": "cryponite",
      "outputs": [
        {
          "internalType": "uint256",
          "name": "",
          "type": "uint256"
        }
      ],
      "stateMutability": "view",
      "type": "function"
    },
    {
      "inputs": [
        {
          "internalType": "uint256",
          "name": "id",
          "type": "uint256"
        }
      ],
      "name": "deleteEvent",
      "outputs": [],
      "stateMutability": "nonpayable",
      "type": "function"
    },
    {
      "inputs": [
        {
          "internalType": "uint256",
          "name": "",
          "type": "uint256"
        }
      ],
      "name": "eventExist",
      "outputs": [
        {
          "internalType": "bool",
          "name": "",
          "type": "bool"
        }
      ],
      "stateMutability": "view",
      "type": "function"
    },
    {
      "inputs": [],
      "name": "getAllEvents",
      "outputs": [
        {
          "components": [
            {
              "internalType": "uint256",
              "name": "id",
              "type": "uint256"
            },
            {
              "internalType": "address",
              "name": "owner",
              "type": "address"
            },
            {
              "internalType": "string",
              "name": "name",
              "type": "string"
            },
            {
              "internalType": "string",
              "name": "description",
              "type": "string"
            },
            {
              "internalType": "string",
              "name": "image",
              "type": "string"
            },
            {
              "internalType": "string",
              "name": "location",
              "type": "string"
            },
            {
              "internalType": "uint256",
              "name": "amount",
              "type": "uint256"
            },
            {
              "internalType": "uint256",
              "name": "donations",
              "type": "uint256"
            },
            {
              "internalType": "uint256",
              "name": "raised",
              "type": "uint256"
            },
            {
              "internalType": "uint256",
              "name": "timestamp",
              "type": "uint256"
            },
            {
              "internalType": "bool",
              "name": "deleted",
              "type": "bool"
            },
            {
              "internalType": "bool",
              "name": "isLive",
              "type": "bool"
            }
          ],
          "internalType": "struct Cryptonite.EventStruct[]",
          "name": "",
          "type": "tuple[]"
        }
      ],
      "stateMutability": "view",
      "type": "function"
    },
    {
      "inputs": [],
      "name": "getAllUsers",
      "outputs": [
        {
          "components": [
            {
              "internalType": "uint256",
              "name": "id",
              "type": "uint256"
            },
            {
              "internalType": "address",
              "name": "owner",
              "type": "address"
            },
            {
              "internalType": "string",
              "name": "userName",
              "type": "string"
            },
            {
              "internalType": "string",
              "name": "email",
              "type": "string"
            },
            {
              "internalType": "string",
              "name": "phone",
              "type": "string"
            }
          ],
          "internalType": "struct Cryptonite.UserStruct[]",
          "name": "",
          "type": "tuple[]"
        }
      ],
      "stateMutability": "view",
      "type": "function"
    },
    {
      "inputs": [
        {
          "internalType": "uint256",
          "name": "id",
          "type": "uint256"
        }
      ],
      "name": "getEvent",
      "outputs": [
        {
          "components": [
            {
              "internalType": "uint256",
              "name": "id",
              "type": "uint256"
            },
            {
              "internalType": "address",
              "name": "owner",
              "type": "address"
            },
            {
              "internalType": "string",
              "name": "name",
              "type": "string"
            },
            {
              "internalType": "string",
              "name": "description",
              "type": "string"
            },
            {
              "internalType": "string",
              "name": "image",
              "type": "string"
            },
            {
              "internalType": "string",
              "name": "location",
              "type": "string"
            },
            {
              "internalType": "uint256",
              "name": "amount",
              "type": "uint256"
            },
            {
              "internalType": "uint256",
              "name": "donations",
              "type": "uint256"
            },
            {
              "internalType": "uint256",
              "name": "raised",
              "type": "uint256"
            },
            {
              "internalType": "uint256",
              "name": "timestamp",
              "type": "uint256"
            },
            {
              "internalType": "bool",
              "name": "deleted",
              "type": "bool"
            },
            {
              "internalType": "bool",
              "name": "isLive",
              "type": "bool"
            }
          ],
          "internalType": "struct Cryptonite.EventStruct",
          "name": "",
          "type": "tuple"
        }
      ],
      "stateMutability": "view",
      "type": "function"
    },
    {
      "inputs": [],
      "name": "getEvents",
      "outputs": [
        {
          "components": [
            {
              "internalType": "uint256",
              "name": "id",
              "type": "uint256"
            },
            {
              "internalType": "address",
              "name": "owner",
              "type": "address"
            },
            {
              "internalType": "string",
              "name": "name",
              "type": "string"
            },
            {
              "internalType": "string",
              "name": "description",
              "type": "string"
            },
            {
              "internalType": "string",
              "name": "image",
              "type": "string"
            },
            {
              "internalType": "string",
              "name": "location",
              "type": "string"
            },
            {
              "internalType": "uint256",
              "name": "amount",
              "type": "uint256"
            },
            {
              "internalType": "uint256",
              "name": "donations",
              "type": "uint256"
            },
            {
              "internalType": "uint256",
              "name": "raised",
              "type": "uint256"
            },
            {
              "internalType": "uint256",
              "name": "timestamp",
              "type": "uint256"
            },
            {
              "internalType": "bool",
              "name": "deleted",
              "type": "bool"
            },
            {
              "internalType": "bool",
              "name": "isLive",
              "type": "bool"
            }
          ],
          "internalType": "struct Cryptonite.EventStruct[]",
          "name": "Events",
          "type": "tuple[]"
        }
      ],
      "stateMutability": "view",
      "type": "function"
    },
    {
      "inputs": [],
      "name": "getMyEvents",
      "outputs": [
        {
          "components": [
            {
              "internalType": "uint256",
              "name": "id",
              "type": "uint256"
            },
            {
              "internalType": "address",
              "name": "owner",
              "type": "address"
            },
            {
              "internalType": "string",
              "name": "name",
              "type": "string"
            },
            {
              "internalType": "string",
              "name": "description",
              "type": "string"
            },
            {
              "internalType": "string",
              "name": "image",
              "type": "string"
            },
            {
              "internalType": "string",
              "name": "location",
              "type": "string"
            },
            {
              "internalType": "uint256",
              "name": "amount",
              "type": "uint256"
            },
            {
              "internalType": "uint256",
              "name": "donations",
              "type": "uint256"
            },
            {
              "internalType": "uint256",
              "name": "raised",
              "type": "uint256"
            },
            {
              "internalType": "uint256",
              "name": "timestamp",
              "type": "uint256"
            },
            {
              "internalType": "bool",
              "name": "deleted",
              "type": "bool"
            },
            {
              "internalType": "bool",
              "name": "isLive",
              "type": "bool"
            }
          ],
          "internalType": "struct Cryptonite.EventStruct[]",
          "name": "Events",
          "type": "tuple[]"
        }
      ],
      "stateMutability": "view",
      "type": "function"
    },
    {
      "inputs": [
        {
          "internalType": "uint256",
          "name": "id",
          "type": "uint256"
        }
      ],
      "name": "getUser",
      "outputs": [
        {
          "components": [
            {
              "internalType": "uint256",
              "name": "id",
              "type": "uint256"
            },
            {
              "internalType": "address",
              "name": "owner",
              "type": "address"
            },
            {
              "internalType": "string",
              "name": "userName",
              "type": "string"
            },
            {
              "internalType": "string",
              "name": "email",
              "type": "string"
            },
            {
              "internalType": "string",
              "name": "phone",
              "type": "string"
            }
          ],
          "internalType": "struct Cryptonite.UserStruct",
          "name": "",
          "type": "tuple"
        }
      ],
      "stateMutability": "view",
      "type": "function"
    },
    {
      "inputs": [
        {
          "internalType": "string",
          "name": "email",
          "type": "string"
        }
      ],
      "name": "getUserByEmail",
      "outputs": [
        {
          "components": [
            {
              "internalType": "uint256",
              "name": "id",
              "type": "uint256"
            },
            {
              "internalType": "address",
              "name": "owner",
              "type": "address"
            },
            {
              "internalType": "string",
              "name": "userName",
              "type": "string"
            },
            {
              "internalType": "string",
              "name": "email",
              "type": "string"
            },
            {
              "internalType": "string",
              "name": "phone",
              "type": "string"
            }
          ],
          "internalType": "struct Cryptonite.UserStruct",
          "name": "",
          "type": "tuple"
        }
      ],
      "stateMutability": "view",
      "type": "function"
    },
    {
      "inputs": [
        {
          "internalType": "string",
          "name": "userName",
          "type": "string"
        }
      ],
      "name": "getUserByUserName",
      "outputs": [
        {
          "components": [
            {
              "internalType": "uint256",
              "name": "id",
              "type": "uint256"
            },
            {
              "internalType": "address",
              "name": "owner",
              "type": "address"
            },
            {
              "internalType": "string",
              "name": "userName",
              "type": "string"
            },
            {
              "internalType": "string",
              "name": "email",
              "type": "string"
            },
            {
              "internalType": "string",
              "name": "phone",
              "type": "string"
            }
          ],
          "internalType": "struct Cryptonite.UserStruct",
          "name": "",
          "type": "tuple"
        }
      ],
      "stateMutability": "view",
      "type": "function"
    },
    {
      "inputs": [
        {
          "internalType": "uint256",
          "name": "id",
          "type": "uint256"
        }
      ],
      "name": "toggleStatus",
      "outputs": [],
      "stateMutability": "nonpayable",
      "type": "function"
    },
    {
      "inputs": [
        {
          "internalType": "uint256",
          "name": "id",
          "type": "uint256"
        },
        {
          "internalType": "string",
          "name": "name",
          "type": "string"
        },
        {
          "internalType": "string",
          "name": "description",
          "type": "string"
        },
        {
          "internalType": "string",
          "name": "image",
          "type": "string"
        },
        {
          "internalType": "string",
          "name": "location",
          "type": "string"
        },
        {
          "internalType": "uint256",
          "name": "amount",
          "type": "uint256"
        }
      ],
      "name": "updateEvent",
      "outputs": [],
      "stateMutability": "nonpayable",
      "type": "function"
    },
    {
      "inputs": [
        {
          "internalType": "uint256",
          "name": "id",
          "type": "uint256"
        },
        {
          "internalType": "string",
          "name": "userName",
          "type": "string"
        },
        {
          "internalType": "string",
          "name": "email",
          "type": "string"
        },
        {
          "internalType": "string",
          "name": "phone",
          "type": "string"
        }
      ],
      "name": "updateUser",
      "outputs": [],
      "stateMutability": "nonpayable",
      "type": "function"
    },
    {
      "inputs": [
        {
          "internalType": "string",
          "name": "",
          "type": "string"
        }
      ],
      "name": "userEmailExist",
      "outputs": [
        {
          "internalType": "bool",
          "name": "",
          "type": "bool"
        }
      ],
      "stateMutability": "view",
      "type": "function"
    },
    {
      "inputs": [
        {
          "internalType": "string",
          "name": "",
          "type": "string"
        }
      ],
      "name": "userEmailToId",
      "outputs": [
        {
          "internalType": "uint256",
          "name": "",
          "type": "uint256"
        }
      ],
      "stateMutability": "view",
      "type": "function"
    },
    {
      "inputs": [
        {
          "internalType": "uint256",
          "name": "",
          "type": "uint256"
        }
      ],
      "name": "userExist",
      "outputs": [
        {
          "internalType": "bool",
          "name": "",
          "type": "bool"
        }
      ],
      "stateMutability": "view",
      "type": "function"
    },
    {
      "inputs": [
        {
          "internalType": "string",
          "name": "",
          "type": "string"
        }
      ],
      "name": "userUserNameExist",
      "outputs": [
        {
          "internalType": "bool",
          "name": "",
          "type": "bool"
        }
      ],
      "stateMutability": "view",
      "type": "function"
    },
    {
      "inputs": [
        {
          "internalType": "string",
          "name": "",
          "type": "string"
        }
      ],
      "name": "userUserNameToId",
      "outputs": [
        {
          "internalType": "uint256",
          "name": "",
          "type": "uint256"
        }
      ],
      "stateMutability": "view",
      "type": "function"
    }
  ],
  "bytecode": "0x608060405234801561001057600080fd5b506132e8806100206000396000f3fe608060405234801561001057600080fd5b506004361061014d5760003560e01c8063975a584a116100c3578063be6c89871161007c578063be6c898714610350578063c27a500d14610363578063c3cbb4961461036b578063e26bdd4c14610399578063e2842d79146103c4578063f8749a58146103d957600080fd5b8063975a584a146102bc578063a2bdedf4146102cf578063a4e0611d146102f3578063a90cd9f9146102fc578063b0467deb1461032a578063bdcf5b8e1461033d57600080fd5b806351db2e761161011557806351db2e76146101d857806359ae069b146101eb5780636d1884e01461020d57806371b0037f1461022d5780637f8b954c146102605780638063e1cf1461028357600080fd5b806318046ae1146101525780633548124b1461017b5780633bec5cff146101905780633c58f970146101bb578063404aa8f9146101d0575b600080fd5b61016561016036600461298f565b6103ec565b6040516101729190612a89565b60405180910390f35b61018361068f565b6040516101729190612b87565b6101a361019e366004612be9565b610aaf565b6040516101729c9b9a99989796959493929190612c02565b6101ce6101c9366004612caf565b610d4d565b005b610183610f6e565b6101ce6101e6366004612be9565b611382565b6101fe6101f9366004612d6e565b6113dc565b60405161017293929190612df6565b61022061021b366004612be9565b6117ae565b6040516101729190612e21565b61025061023b366004612be9565b60066020526000908152604090205460ff1681565b6040519015158152602001610172565b61025061026e366004612be9565b600a6020526000908152604090205460ff1681565b6102ae61029136600461298f565b805160208183018101805160058252928201919093012091525481565b604051908152602001610172565b6101ce6102ca366004612e34565b611a87565b6102e26102dd366004612be9565b611bd4565b604051610172959493929190612ec6565b6102ae60025481565b61025061030a36600461298f565b805160208183018101805160088252928201919093012091525460ff1681565b610165610338366004612be9565b611db9565b6101ce61034b366004612f22565b611e0b565b61016561035e36600461298f565b612204565b610183612280565b61025061037936600461298f565b805160208183018101805160078252928201919093012091525460ff1681565b6102ae6103a736600461298f565b805160208183018101805160048252928201919093012091525481565b6103cc612595565b6040516101729190612fd7565b6101ce6103e7366004612be9565b6127c1565b6103f4612846565b600082511161041e5760405162461bcd60e51b81526004016104159061302c565b60405180910390fd5b60088260405161042e919061305b565b9081526040519081900360200190205460ff1661045d5760405162461bcd60e51b815260040161041590613077565b60036000600484604051610471919061305b565b90815260200160405180910390205481526020019081526020016000206040518060a0016040529081600082015481526020016001820160009054906101000a90046001600160a01b03166001600160a01b03166001600160a01b031681526020016002820180546104e29061309f565b80601f016020809104026020016040519081016040528092919081815260200182805461050e9061309f565b801561055b5780601f106105305761010080835404028352916020019161055b565b820191906000526020600020905b81548152906001019060200180831161053e57829003601f168201915b505050505081526020016003820180546105749061309f565b80601f01602080910402602001604051908101604052809291908181526020018280546105a09061309f565b80156105ed5780601f106105c2576101008083540402835291602001916105ed565b820191906000526020600020905b8154815290600101906020018083116105d057829003601f168201915b505050505081526020016004820180546106069061309f565b80601f01602080910402602001604051908101604052809291908181526020018280546106329061309f565b801561067f5780601f106106545761010080835404028352916020019161067f565b820191906000526020600020905b81548152906001019060200180831161066257829003601f168201915b5050505050815250509050919050565b6060600060015b60005481116106ff576000818152600960205260409020600a015460ff161580156106da57506000818152600960205260409020600101546001600160a01b031633145b156106ed57816106e9816130d9565b9250505b806106f7816130d9565b915050610696565b508067ffffffffffffffff811115610719576107196128ec565b60405190808252806020026020018201604052801561075257816020015b61073f61287e565b8152602001906001900390816107375790505b509150600060015b6000548111610aa9576000818152600960205260409020600a015460ff1615801561079e57506000818152600960205260409020600101546001600160a01b031633145b15610a97576000818152600960209081526040918290208251610180810184528154815260018201546001600160a01b03169281019290925260028101805492939192918401916107ee9061309f565b80601f016020809104026020016040519081016040528092919081815260200182805461081a9061309f565b80156108675780601f1061083c57610100808354040283529160200191610867565b820191906000526020600020905b81548152906001019060200180831161084a57829003601f168201915b505050505081526020016003820180546108809061309f565b80601f01602080910402602001604051908101604052809291908181526020018280546108ac9061309f565b80156108f95780601f106108ce576101008083540402835291602001916108f9565b820191906000526020600020905b8154815290600101906020018083116108dc57829003601f168201915b505050505081526020016004820180546109129061309f565b80601f016020809104026020016040519081016040528092919081815260200182805461093e9061309f565b801561098b5780601f106109605761010080835404028352916020019161098b565b820191906000526020600020905b81548152906001019060200180831161096e57829003601f168201915b505050505081526020016005820180546109a49061309f565b80601f01602080910402602001604051908101604052809291908181526020018280546109d09061309f565b8015610a1d5780601f106109f257610100808354040283529160200191610a1d565b820191906000526020600020905b815481529060010190602001808311610a0057829003601f168201915b505050918352505060068201546020820152600782015460408201526008820154606082015260098201546080820152600a9091015460ff808216151560a084015261010090910416151560c0909101528483610a79816130d9565b945081518110610a8b57610a8b613100565b60200260200101819052505b80610aa1816130d9565b91505061075a565b50505090565b600d8181548110610abf57600080fd5b60009182526020909120600b90910201805460018201546002830180549294506001600160a01b039091169291610af59061309f565b80601f0160208091040260200160405190810160405280929190818152602001828054610b219061309f565b8015610b6e5780601f10610b4357610100808354040283529160200191610b6e565b820191906000526020600020905b815481529060010190602001808311610b5157829003601f168201915b505050505090806003018054610b839061309f565b80601f0160208091040260200160405190810160405280929190818152602001828054610baf9061309f565b8015610bfc5780601f10610bd157610100808354040283529160200191610bfc565b820191906000526020600020905b815481529060010190602001808311610bdf57829003601f168201915b505050505090806004018054610c119061309f565b80601f0160208091040260200160405190810160405280929190818152602001828054610c3d9061309f565b8015610c8a5780601f10610c5f57610100808354040283529160200191610c8a565b820191906000526020600020905b815481529060010190602001808311610c6d57829003601f168201915b505050505090806005018054610c9f9061309f565b80601f0160208091040260200160405190810160405280929190818152602001828054610ccb9061309f565b8015610d185780601f10610ced57610100808354040283529160200191610d18565b820191906000526020600020905b815481529060010190602001808311610cfb57829003601f168201915b5050506006840154600785015460088601546009870154600a9097015495969295919450925060ff808216916101009004168c565b6000868152600a602052604090205460ff16610d7b5760405162461bcd60e51b815260040161041590613116565b6000868152600960205260409020600101546001600160a01b03163314610db45760405162461bcd60e51b81526004016104159061313f565b6000855111610dfc5760405162461bcd60e51b81526020600482015260146024820152734e616d652063616e6e6f7420626520656d70747960601b6044820152606401610415565b6000845111610e4d5760405162461bcd60e51b815260206004820152601b60248201527f4465736372697074696f6e2063616e6e6f7420626520656d70747900000000006044820152606401610415565b6000835111610e965760405162461bcd60e51b8152602060048201526015602482015274496d6167652063616e6e6f7420626520656d70747960581b6044820152606401610415565b6000825111610ee25760405162461bcd60e51b81526020600482015260186024820152774c6f636174696f6e2063616e6e6f7420626520656d70747960401b6044820152606401610415565b6000868152600960205260409020600201610efd86826131bb565b506000868152600960205260409020600301610f1985826131bb565b506000868152600960205260409020600401610f3584826131bb565b506000868152600960205260409020600501610f5183826131bb565b506000958652600960205260409095206006019490945550505050565b6060600060015b6000548111610fdb576000818152600960205260409020600a015460ff16158015610fb657506000818152600960205260409020600a0154610100900460ff165b15610fc95781610fc5816130d9565b9250505b80610fd3816130d9565b915050610f75565b508067ffffffffffffffff811115610ff557610ff56128ec565b60405190808252806020026020018201604052801561102e57816020015b61101b61287e565b8152602001906001900390816110135790505b509150600060015b6000548111610aa9576000818152600960205260409020600a015460ff1615801561107757506000818152600960205260409020600a0154610100900460ff165b15611370576000818152600960209081526040918290208251610180810184528154815260018201546001600160a01b03169281019290925260028101805492939192918401916110c79061309f565b80601f01602080910402602001604051908101604052809291908181526020018280546110f39061309f565b80156111405780601f1061111557610100808354040283529160200191611140565b820191906000526020600020905b81548152906001019060200180831161112357829003601f168201915b505050505081526020016003820180546111599061309f565b80601f01602080910402602001604051908101604052809291908181526020018280546111859061309f565b80156111d25780601f106111a7576101008083540402835291602001916111d2565b820191906000526020600020905b8154815290600101906020018083116111b557829003601f168201915b505050505081526020016004820180546111eb9061309f565b80601f01602080910402602001604051908101604052809291908181526020018280546112179061309f565b80156112645780601f1061123957610100808354040283529160200191611264565b820191906000526020600020905b81548152906001019060200180831161124757829003601f168201915b5050505050815260200160058201805461127d9061309f565b80601f01602080910402602001604051908101604052809291908181526020018280546112a99061309f565b80156112f65780601f106112cb576101008083540402835291602001916112f6565b820191906000526020600020905b8154815290600101906020018083116112d957829003601f168201915b505050918352505060068201546020820152600782015460408201526008820154606082015260098201546080820152600a9091015460ff808216151560a084015261010090910416151560c0909101528483611352816130d9565b94508151811061136457611364613100565b60200260200101819052505b8061137a816130d9565b915050611036565b6000818152600a602052604090205460ff166113b05760405162461bcd60e51b815260040161041590613116565b6000908152600960205260409020600a01805461ff001981166101009182900460ff1615909102179055565b600060606000808651116114025760405162461bcd60e51b81526004016104159061327b565b60008551116114235760405162461bcd60e51b81526004016104159061302c565b600084511161146c5760405162461bcd60e51b815260206004820152601560248201527450686f6e652063616e6e6f7420626520656d70747960581b6044820152606401610415565b60088560405161147c919061305b565b9081526040519081900360200190205460ff16806114b957506007866040516114a5919061305b565b9081526040519081900360200190205460ff165b156114fe5750506040805180820190915260208082527f456d61696c206f7220757365726e616d6520616c7265616479206578697374739082015260009150816117a5565b61150c600180546001019055565b611514612846565b6001805482523360208301908152604083018981526060840189905260808401889052600e8054938401815560005283517fbb7b4a454dc3493923482f07822329ed19e8244eff582cc204f8554c3620c3fd600590940293840190815591517fbb7b4a454dc3493923482f07822329ed19e8244eff582cc204f8554c3620c3fe840180546001600160a01b0319166001600160a01b039092169190911790555183927fbb7b4a454dc3493923482f07822329ed19e8244eff582cc204f8554c3620c3ff01906115e390826131bb565b50606082015160038201906115f890826131bb565b506080820151600482019061160d90826131bb565b5050815160009081526003602090815260409182902084518155908401516001820180546001600160a01b0319166001600160a01b0390921691909117905590830151839250600282019061166290826131bb565b506060820151600382019061167790826131bb565b506080820151600482019061168c90826131bb565b509050508060000151600482606001516040516116a9919061305b565b90815260408051918290036020018220929092558251918301516005916116d0919061305b565b90815260408051602092819003830181209390935583516000908152600690925290208054600160ff199091168117909155606083015190916008916117159161305b565b90815260408051918290036020018220805493151560ff19909416939093179092559082015160019160079161174a9161305b565b9081526040805160209281900383018120805460ff1916941515949094179093559251828401909352601c82527f4163636f756e742063726561746564207375636365737366756c6c79000000009082015260019450925090505b93509350939050565b6117b661287e565b6000828152600960209081526040918290208251610180810184528154815260018201546001600160a01b03169281019290925260028101805492939192918401916118019061309f565b80601f016020809104026020016040519081016040528092919081815260200182805461182d9061309f565b801561187a5780601f1061184f5761010080835404028352916020019161187a565b820191906000526020600020905b81548152906001019060200180831161185d57829003601f168201915b505050505081526020016003820180546118939061309f565b80601f01602080910402602001604051908101604052809291908181526020018280546118bf9061309f565b801561190c5780601f106118e15761010080835404028352916020019161190c565b820191906000526020600020905b8154815290600101906020018083116118ef57829003601f168201915b505050505081526020016004820180546119259061309f565b80601f01602080910402602001604051908101604052809291908181526020018280546119519061309f565b801561199e5780601f106119735761010080835404028352916020019161199e565b820191906000526020600020905b81548152906001019060200180831161198157829003601f168201915b505050505081526020016005820180546119b79061309f565b80601f01602080910402602001604051908101604052809291908181526020018280546119e39061309f565b8015611a305780601f10611a0557610100808354040283529160200191611a30565b820191906000526020600020905b815481529060010190602001808311611a1357829003601f168201915b505050918352505060068201546020820152600782015460408201526008820154606082015260098201546080820152600a9091015460ff808216151560a084015261010090910416151560c09091015292915050565b60008481526006602052604090205460ff16611ab55760405162461bcd60e51b815260040161041590613077565b6000848152600360205260409020600101546001600160a01b03163314611aee5760405162461bcd60e51b81526004016104159061313f565b6000835111611b0f5760405162461bcd60e51b81526004016104159061327b565b6000825111611b305760405162461bcd60e51b81526004016104159061302c565b6000815111611b795760405162461bcd60e51b815260206004820152601560248201527450686f6e652063616e6e6f7420626520656d70747960581b6044820152606401610415565b6000848152600360205260409020600201611b9484826131bb565b50600084815260036020819052604090912001611bb183826131bb565b506000848152600360205260409020600401611bcd82826131bb565b5050505050565b600e8181548110611be457600080fd5b60009182526020909120600590910201805460018201546002830180549294506001600160a01b039091169291611c1a9061309f565b80601f0160208091040260200160405190810160405280929190818152602001828054611c469061309f565b8015611c935780601f10611c6857610100808354040283529160200191611c93565b820191906000526020600020905b815481529060010190602001808311611c7657829003601f168201915b505050505090806003018054611ca89061309f565b80601f0160208091040260200160405190810160405280929190818152602001828054611cd49061309f565b8015611d215780601f10611cf657610100808354040283529160200191611d21565b820191906000526020600020905b815481529060010190602001808311611d0457829003601f168201915b505050505090806004018054611d369061309f565b80601f0160208091040260200160405190810160405280929190818152602001828054611d629061309f565b8015611daf5780601f10611d8457610100808354040283529160200191611daf565b820191906000526020600020905b815481529060010190602001808311611d9257829003601f168201915b5050505050905085565b611dc1612846565b600082815260036020908152604091829020825160a0810184528154815260018201546001600160a01b03169281019290925260028101805492939192918401916104e29061309f565b6000855111611e535760405162461bcd60e51b81526020600482015260146024820152734e616d652063616e6e6f7420626520656d70747960601b6044820152606401610415565b6000845111611ea45760405162461bcd60e51b815260206004820152601b60248201527f4465736372697074696f6e2063616e6e6f7420626520656d70747900000000006044820152606401610415565b6000835111611eed5760405162461bcd60e51b8152602060048201526015602482015274496d6167652063616e6e6f7420626520656d70747960581b6044820152606401610415565b6000825111611f395760405162461bcd60e51b81526020600482015260186024820152774c6f636174696f6e2063616e6e6f7420626520656d70747960401b6044820152606401610415565b611f47600080546001019055565b611f4f61287e565b6000548152336020820190815260408201878152606083018790526080830186905260a0830185905260c083018490526000610100840181905260e08401819052610140840181905260016101608501819052600d8054918201815590915283517fd7b6990105719101dabeb77144f2a3385c8033acd3af97e9423a695e81ad1eb5600b90920291820190815592517fd7b6990105719101dabeb77144f2a3385c8033acd3af97e9423a695e81ad1eb6820180546001600160a01b0319166001600160a01b0390921691909117905590518392917fd7b6990105719101dabeb77144f2a3385c8033acd3af97e9423a695e81ad1eb7019061205090826131bb565b506060820151600382019061206590826131bb565b506080820151600482019061207a90826131bb565b5060a0820151600582019061208f90826131bb565b5060c0820151600682015560e08201516007820155610100808301516008830155610120830151600980840191909155610140840151600a90930180546101609095015161ffff1990951693151561ff0019169390931793151590910292909217905581516000908152602091825260409081902083518155918301516001830180546001600160a01b0319166001600160a01b03909216919091179055820151829190600282019061214290826131bb565b506060820151600382019061215790826131bb565b506080820151600482019061216c90826131bb565b5060a0820151600582019061218190826131bb565b5060c0820151600682015560e082015160078201556101008083015160088301556101208301516009830155610140830151600a92830180546101609095015161ffff1990951691151561ff00191691909117931515909102929092179091559051600090815260209190915260409020805460ff191660011790555050505050565b61220c612846565b600082511161222d5760405162461bcd60e51b81526004016104159061327b565b60078260405161223d919061305b565b9081526040519081900360200190205460ff1661226c5760405162461bcd60e51b815260040161041590613077565b60036000600584604051610471919061305b565b6060600d805480602002602001604051908101604052809291908181526020016000905b8282101561258c5760008481526020908190206040805161018081018252600b86029092018054835260018101546001600160a01b031693830193909352600283018054929392918401916122f89061309f565b80601f01602080910402602001604051908101604052809291908181526020018280546123249061309f565b80156123715780601f1061234657610100808354040283529160200191612371565b820191906000526020600020905b81548152906001019060200180831161235457829003601f168201915b5050505050815260200160038201805461238a9061309f565b80601f01602080910402602001604051908101604052809291908181526020018280546123b69061309f565b80156124035780601f106123d857610100808354040283529160200191612403565b820191906000526020600020905b8154815290600101906020018083116123e657829003601f168201915b5050505050815260200160048201805461241c9061309f565b80601f01602080910402602001604051908101604052809291908181526020018280546124489061309f565b80156124955780601f1061246a57610100808354040283529160200191612495565b820191906000526020600020905b81548152906001019060200180831161247857829003601f168201915b505050505081526020016005820180546124ae9061309f565b80601f01602080910402602001604051908101604052809291908181526020018280546124da9061309f565b80156125275780601f106124fc57610100808354040283529160200191612527565b820191906000526020600020905b81548152906001019060200180831161250a57829003601f168201915b50505091835250506006820154602080830191909152600783015460408301526008830154606083015260098301546080830152600a9092015460ff808216151560a084015261010090910416151560c09091015290825260019290920191016122a4565b50505050905090565b6060600e805480602002602001604051908101604052809291908181526020016000905b8282101561258c5760008481526020908190206040805160a081018252600586029092018054835260018101546001600160a01b0316938301939093526002830180549293929184019161260c9061309f565b80601f01602080910402602001604051908101604052809291908181526020018280546126389061309f565b80156126855780601f1061265a57610100808354040283529160200191612685565b820191906000526020600020905b81548152906001019060200180831161266857829003601f168201915b5050505050815260200160038201805461269e9061309f565b80601f01602080910402602001604051908101604052809291908181526020018280546126ca9061309f565b80156127175780601f106126ec57610100808354040283529160200191612717565b820191906000526020600020905b8154815290600101906020018083116126fa57829003601f168201915b505050505081526020016004820180546127309061309f565b80601f016020809104026020016040519081016040528092919081815260200182805461275c9061309f565b80156127a95780601f1061277e576101008083540402835291602001916127a9565b820191906000526020600020905b81548152906001019060200180831161278c57829003601f168201915b505050505081525050815260200190600101906125b9565b6000818152600a602052604090205460ff166127ef5760405162461bcd60e51b815260040161041590613116565b6000818152600960205260409020600101546001600160a01b031633146128285760405162461bcd60e51b81526004016104159061313f565b6000908152600960205260409020600a01805460ff19166001179055565b6040518060a001604052806000815260200160006001600160a01b031681526020016060815260200160608152602001606081525090565b6040518061018001604052806000815260200160006001600160a01b0316815260200160608152602001606081526020016060815260200160608152602001600081526020016000815260200160008152602001600081526020016000151581526020016000151581525090565b634e487b7160e01b600052604160045260246000fd5b600082601f83011261291357600080fd5b813567ffffffffffffffff8082111561292e5761292e6128ec565b604051601f8301601f19908116603f01168101908282118183101715612956576129566128ec565b8160405283815286602085880101111561296f57600080fd5b836020870160208301376000602085830101528094505050505092915050565b6000602082840312156129a157600080fd5b813567ffffffffffffffff8111156129b857600080fd5b6129c484828501612902565b949350505050565b60005b838110156129e75781810151838201526020016129cf565b50506000910152565b60008151808452612a088160208601602086016129cc565b601f01601f19169290920160200192915050565b8051825260018060a01b0360208201511660208301526000604082015160a06040850152612a4d60a08501826129f0565b905060608301518482036060860152612a6682826129f0565b91505060808301518482036080860152612a8082826129f0565b95945050505050565b602081526000612a9c6020830184612a1c565b9392505050565b6000610180825184526020830151612ac660208601826001600160a01b03169052565b506040830151816040860152612ade828601826129f0565b91505060608301518482036060860152612af882826129f0565b91505060808301518482036080860152612b1282826129f0565b91505060a083015184820360a0860152612b2c82826129f0565b91505060c083015160c085015260e083015160e085015261010080840151818601525061012080840151818601525061014080840151612b6f8287018215159052565b50506101609283015115159390920192909252919050565b6000602080830181845280855180835260408601915060408160051b870101925083870160005b82811015612bdc57603f19888603018452612bca858351612aa3565b94509285019290850190600101612bae565b5092979650505050505050565b600060208284031215612bfb57600080fd5b5035919050565b8c81526001600160a01b038c16602082015261018060408201819052600090612c2d8382018e6129f0565b90508281036060840152612c41818d6129f0565b90508281036080840152612c55818c6129f0565b905082810360a0840152612c69818b6129f0565b9150508760c08301528660e08301528561010083015284610120830152831515610140830152612c9e61016083018415159052565b9d9c50505050505050505050505050565b60008060008060008060c08789031215612cc857600080fd5b86359550602087013567ffffffffffffffff80821115612ce757600080fd5b612cf38a838b01612902565b96506040890135915080821115612d0957600080fd5b612d158a838b01612902565b95506060890135915080821115612d2b57600080fd5b612d378a838b01612902565b94506080890135915080821115612d4d57600080fd5b50612d5a89828a01612902565b92505060a087013590509295509295509295565b600080600060608486031215612d8357600080fd5b833567ffffffffffffffff80821115612d9b57600080fd5b612da787838801612902565b94506020860135915080821115612dbd57600080fd5b612dc987838801612902565b93506040860135915080821115612ddf57600080fd5b50612dec86828701612902565b9150509250925092565b8315158152606060208201526000612e1160608301856129f0565b9050826040830152949350505050565b602081526000612a9c6020830184612aa3565b60008060008060808587031215612e4a57600080fd5b84359350602085013567ffffffffffffffff80821115612e6957600080fd5b612e7588838901612902565b94506040870135915080821115612e8b57600080fd5b612e9788838901612902565b93506060870135915080821115612ead57600080fd5b50612eba87828801612902565b91505092959194509250565b8581526001600160a01b038516602082015260a060408201819052600090612ef0908301866129f0565b8281036060840152612f0281866129f0565b90508281036080840152612f1681856129f0565b98975050505050505050565b600080600080600060a08688031215612f3a57600080fd5b853567ffffffffffffffff80821115612f5257600080fd5b612f5e89838a01612902565b96506020880135915080821115612f7457600080fd5b612f8089838a01612902565b95506040880135915080821115612f9657600080fd5b612fa289838a01612902565b94506060880135915080821115612fb857600080fd5b50612fc588828901612902565b95989497509295608001359392505050565b6000602080830181845280855180835260408601915060408160051b870101925083870160005b82811015612bdc57603f1988860301845261301a858351612a1c565b94509285019290850190600101612ffe565b602080825260159082015274456d61696c2063616e6e6f7420626520656d70747960581b604082015260600190565b6000825161306d8184602087016129cc565b9190910192915050565b6020808252600e908201526d155cd95c88139bdd08119bdd5b9960921b604082015260600190565b600181811c908216806130b357607f821691505b6020821081036130d357634e487b7160e01b600052602260045260246000fd5b50919050565b6000600182016130f957634e487b7160e01b600052601160045260246000fd5b5060010190565b634e487b7160e01b600052603260045260246000fd5b6020808252600f908201526e115d995b9d08139bdd08119bdd5b99608a1b604082015260600190565b602080825260139082015272556e617574686f72697a656420456e7469747960681b604082015260600190565b601f8211156131b657600081815260208120601f850160051c810160208610156131935750805b601f850160051c820191505b818110156131b25782815560010161319f565b5050505b505050565b815167ffffffffffffffff8111156131d5576131d56128ec565b6131e9816131e3845461309f565b8461316c565b602080601f83116001811461321e57600084156132065750858301515b600019600386901b1c1916600185901b1785556131b2565b600085815260208120601f198616915b8281101561324d5788860151825594840194600190910190840161322e565b508582101561326b5787850151600019600388901b60f8161c191681555b5050505050600190811b01905550565b60208082526019908201527f55736572204e616d652063616e6e6f7420626520656d7074790000000000000060408201526060019056fea2646970667358221220ffce97af3514fc08ee3060f2ef54b8cbc99be051193a96a822fbc7c72a70441c64736f6c63430008130033",
  "linkReferences": {},
  "deployedLinkReferences": {}
}